:020000022000DC
:10600000000004203DE102007DE102007FE102008A
:1060100081E1020083E1020085E10200000000004E
:10602000000000000000000000000000B9E00200D5
:1060300089E1020000000000D9E002008DE10200C9
:10604000CDE302008FE102008FE102008FE1020048
:106050008FE102008FE102008FE102008FE1020078
:106060008FE102008FE102008FE102008FE1020068
:106070008FE102008FE102008FE102008FE1020058
:106080008FE1020045DE02008FE102008FE1020095
:106090008FE102008FE102009D8502008FE1020086
:1060A0008FE102008FE102008FE102008FE1020028
:1060B0008FE102008FE102000000000000000000FC
:1060C0008FE102008FE102008FE102008FE1020008
:1060D0008FE102008FE102008FE102008DBA020021
:1060E0008FE102008FE102008FE10200000000005A
:1060F000000000008FE10200000000008FE10200BC
:10610000000000000000000000000000000000008F
:10611000000000000000000000000000000000007F
:10612000000000000000000000000000000000006F
:10613000000000000000000000000000000000005F
:10614000000000000000000000000000000000004F
:10615000000000000000000000000000000000003F
:10616000000000000000000000000000000000002F
:10617000000000000000000000000000000000001F
:10618000000000000000000000000000000000000F
:1061900000000000000000000000000000000000FF
:1061A00000000000000000000000000000000000EF
:1061B00000000000000000000000000000000000DF
:1061C00000000000000000000000000000000000CF
:1061D00000000000000000000000000000000000BF
:1061E00000000000000000000000000000000000AF
:1061F000000000000000000000000000000000009F
:10620000F1EE103A43F08073E1EE103A704700BFB0
:1062100010B5054C237833B9044B13B10448AFF3E0
:1062200000800123237010BDA46200200000000044
:106230002C9A030008B5034B1BB103490348AFF385
:10624000008008BD00000000A86200202C9A030016
:10625000154B002B08BF134B9D46A3F5803A002138
:106260008B460F461348144A121A0FF034FF0F4B97
:10627000002B00D098470E4B002B00D098470020F1
:10628000002104000D000D48002802D00C48AFF397
:1062900000800FF0A7FE2000290007F09DFF0FF0FF
:1062A0007BFE00BF0000080000000420000000008A
:1062B00000000000A4620020F48F00200000000015
:1062C0000000000038B5064C0D462046054902F096
:1062D000C7FF294620461022BDE8384003F026B803
:1062E00054670020E88F030038B504460C480D4978
:1062F000054602F0B5FF07E023682046DB689847B3
:10630000C1B2284602F0BEFF23682046DB699847E9
:106310000028F1D10248BDE8384002F0E7BF00BFD5
:1063200054670020E08F03002DE9F0410546234922
:106330002348DFF89C80224F02F092FF2C460A226D
:1063400095F913101E4803F02BF81E491C4802F063
:1063500087FF14F8031B1A48C1F3C0010A2203F097
:106360001FF81949164802F07BFF05F1090614F8D9
:10637000012B4146384603F08BF8B442F7D1104860
:106380001249134F064602F0B9FF1249304602F097
:1063900067FF05F10A04103514F8012B3946304621
:1063A00003F076F8A542F7D10849054802F0A6FFA8
:1063B00006490348BDE8F04102F0A0BF888E030003
:1063C00054670020948E0300A48E03004C900300B9
:1063D000B48E0300BC8E030010B501460446094A82
:1063E000094801F00BFB20B90748BDE8104001F057
:1063F0009DBA0649064802F033FF2046BDE810402A
:10640000FFF792BF2063002030660020CC8E03008F
:106410005467002070B50D4E0D4D0E4C304602F005
:1064200011F92A460C4930460FF09CF90B4802F04E
:106430005DF920464FF4807102F0C2FA2A462046E8
:106440000749BDE870400FF08DB900BFC062002061
:1064500000600020206300202D6702000C630020F4
:1064600001670200284810B54FF4E131044603F0FB
:1064700055F902E00A2005F073FB204603F050F9BD
:106480000028F7D02149204802F038FF20491E4853
:1064900002F034FF012200211E4801F08DFE1E494A
:1064A0001C4802F01BF81D4802F0F2F81C4802F0EC
:1064B00033F91C4802F0CCFA1B491A4802F0C4FA1E
:1064C000FA21144802F022F81849194800F06CF932
:1064D0001849174800F06AF91749184801F008FAF6
:1064E0000121164801F006FA5022A021134801F0BC
:1064F000F9F90021114801F0EDF900210F48BDE83C
:10650000104001F0FBB900BF546700200490030065
:1065100028900300D463002050900300C062002044
:106520000C63002020630020E96202004165020044
:1065300094660020C5620200D96302003066002024
:1065400010B546498AB00446454802F0D7FE454991
:10655000434802F085FE2146434802F0E3F8002854
:106560004ED042493E4802F0C9FE2122002101A836
:106570000FF0B1FD01A921223B4802F0D5F8002817
:1065800062D12122002101A80FF0A5FD212201A93D
:10659000354802F005F900284DD1314802F0A6FE39
:1065A00033492F4802F05CFE2146324802F07CF865
:1065B00058B32E492A4802F0A1FE2F49284802F07C
:1065C0004FFE2C4802F060F80A220146244802F0EF
:1065D0005DFE2A49224802F091FE2949204802F036
:1065E0003FFE2146274802F04FFA98B926491C4839
:1065F00002F084FE2146254801F0AAFF0AB010BD32
:106600002149174802F07AFECAE71F49144802F0F0
:1066100075FEE2E71549124802F070FE1C49104869
:1066200002F06CFE174802F00BFA1A490C4802F00F
:1066300065FE0AB010BD1849094802F011FE01A913
:10664000074802F05BFEA8E71449054802F008FE7F
:1066500001A9034802F052FE93E700BFF88E030041
:1066600054670020048F03000C630020288F030070
:10667000588F0300C0620020708F0300808F0300DA
:10668000848F0300206300204C8F0300D46300201C
:10669000A88F0300BC8F0300448F0300348F0300D6
:1066A00000B5134887B000F063F810B907B05DF883
:1066B00004FB104800F0C8FB0028F7D00E4802F099
:1066C000A3FF0028F2D0022005F04AFA0023694611
:1066D000142209480493CDE90033CDE902338DF843
:1066E000143002F0F1FE6946044802F0B9FDDDE71E
:1066F000946600202063002054670020346300204B
:10670000094B10B503F13002044603604261943036
:1067100008F028F904F15C0000F068F804F12400A6
:1067200000F064F8204610BD4091030010B5044B02
:10673000044640F8143B00F059F8204610BD00BF55
:106740001891030075DF704710B44FF010144FF428
:1067500048010022C0E90041C0E902225DF8044B73
:10676000704700BF014800F083BD00BFA466002051
:10677000F8B500240B4F2546A1B2384601F006FFBC
:106780000134064648B100F0D5FB30B1304600F088
:10679000D5FB022804BF0135EDB2142CECD12846FC
:1067A000F8BD00BFD463002081607047C1607047AE
:1067B0000B881F2B12D110B50A4682B052F8080F71
:1067C0008C8851686B4603C32046BDF80030ADF895
:1067D00002306946FFF7B6FF02B010BD704700BF38
:1067E000A1DF7047A3DF7047A4DF704710B5064BE9
:1067F000044640F81C3B02F095F92146034800F09E
:10680000F3FF204610BD00BF6C900300D46300204E
:1068100010B5074B044640F81C3B02F083F92146B3
:10682000044800F0E1FF204607F028FD204610BD97
:106830006C900300D463002030B583B06D4685E8CA
:10684000060003460B4943F8041B044695E8030081
:1068500083E8050004F11C0002F050F900232046F3
:10686000E36023616361C4E90B3384F8343003B01F
:1068700030BD00BF6C90030038B504460D460430AF
:1068800001F0F8F90DB9074B1D68A56121460648CE
:1068900000F0D6FF04F11C000121BDE8384002F0F1
:1068A00037B900BFD0630020D46300200A4600F14E
:1068B0000C034968106803C312891A80704700BF2F
:1068C00000238382704700BF808A003018BF0120F8
:1068D000704700BF806900F0BFBA00BF808A704770
:1068E0008069704710B592B004460392009232233B
:1068F00005AA404800F0C4FD68B39DF81A30012B8A
:106900004ED0012827D99DF82030012B50D00228E5
:1069100021D09DF82630012B20D003281BD09DF8D4
:106920002C30012B2CD0042815D09DF83230012BAF
:106930002ED005280FD09DF83830012B3FD00628E7
:1069400009D09DF83E30012B4CD0072803D09DF88C
:106950004430012B3BD0012012B010BDBDF82420E3
:1069600042F602139A42D8D1022312AA03EB430340
:1069700002EB4303012033F8323CE38212B010BD36
:10698000BDF82A2042F602139A42CCD10323ECE749
:10699000BDF8302042F602139A42CAD10423E4E73C
:1069A000BDF8182042F602139A42AAD10023DCE770
:1069B000BDF81E1042F602129142A8D1D5E7BDF8EB
:1069C000362042F602139A42B9D10523CDE7BDF82D
:1069D000422042F602139A4208BF0723C5D0012085
:1069E00012B010BDBDF83C2042F602139A42ACD161
:1069F0000623BAE7A4660020037C9B0701D400208D
:106A000070472DE9F041044680690D46164600F0B6
:106A100023FA0146134801F0B9FD88B100F090FA5D
:106A200004F11C08294632460746404602F08AF81F
:106A3000A06900F011FAA18A0022FFF7D1FE10B17F
:106A40000020BDE8F081FA1E92B26421023A40466D
:106A500096FBF2F202FB011102F07AF820EAE070F4
:106A600080B2EEE7D4630020037C9B0701D40020B2
:106A7000704770B5044682B0806900F0EDF90146B8
:106A8000174801F083FD90B100F05AFA04F11C069A
:106A900001220DF107010546304602F053F8A069C6
:106AA00000F0DAF9A18A0022FFF79AFE10B1002067
:106AB00002B070BD033DADB264210123023D3046FA
:106AC00093FBF5F505FB011102F042F820EAE070B6
:106AD00080B20028EBD09DF8070002B070BD00BF67
:106AE000D46300202DE9F04F87B0064680690192FB
:106AF0000D46144600F0B0F90146224801F046FD6B
:106B00008046002836D000F01BFA03381FFA80F9BF
:106B10009CB3DDF804B000274FF0020A19E0B28AF6
:106B2000B0690397ADF81070ADF80E208DF80CA089
:106B3000ADF81240059500F08FF903A9FFF752FE5A
:106B4000ABEB040270B91FFA82FB2544BBF1000FC6
:106B500013D0D94540464C4628BF5C4600F01CFA8D
:106B60000028DCD1019BA3EB0B0B1FFA8BF007B0C5
:106B7000BDE8F08F07B0BDE8F08F019807B0BDE821
:106B8000F08F00BFD463002090F83430C16262F30C
:106B9000000380F834307047037C13F0100301D1F8
:106BA0001846704730B585B0044601238069ADF8BA
:106BB000023000F051F9E38AADF8063005460023B3
:106BC00002224FF48174ADF808300D48ADF804404E
:106BD0000DEB02032946ADF80A20039301F0D6FC21
:106BE00010B100F0D9F910B9002005B030BD284629
:106BF00001A9FFF7F7FDB0FA80F04009F5E700BF03
:106C0000D46300202DE9F0410B88CE88382B86B064
:106C10000C46054642D0392B25D0362B02D006B083
:106C2000BDE8F081806900F017F90146614801F084
:106C3000ADFC00F085F905F11C0807466EB9E28944
:106C400004F11001404601F0B1FF2B8D2BB1033F41
:106C5000BFB2E389013FBB4270DA404601F0BEFF9C
:106C600006B0BDE8F0810B7B012B57D0022BD6D1AB
:106C7000036B002BD3D090F83420B1F80480CE8978
:106C8000920701F1100700F1848032463946284608
:106C9000984761894046FFF7A7FDC0E700F11C0750
:106CA000002E35D10A8A3846314601F07FFF94F82C
:106CB0000C80B8F1010F2BD0B8F1040FAFD1A86947
:106CC00000F0CAF801463B4801F060FC00F038F9DA
:106CD0002B8D053880B2834228BF0346002B37D066
:106CE000218AE289A869AC8AADF80C600A44696A15
:106CF00005918DF80C80ADF81230ADF81020ADF88C
:106D00000E4000F0A9F803A9FFF76CFD002886D01B
:106D1000384601F063FF06B0BDE8F081C36A002B7E
:106D20003FF47DAF90F83420CE8901F11007D107F0
:106D30001ED4324639462846984770E7A86900F0C5
:106D40008BF86A8DA98AFFF74BFD002885D166E78D
:106D500040F20511AA8AA869ADF80C10CDE90433F8
:106D6000ADF80E2000F078F803A9FFF73BFDCFE760
:106D700003201A460090314603AB3846CDE903574D
:106D8000059607F061FD00287FF449AFE689EB6ABC
:106D9000CFE703201A460090314603AB3846CDE9D1
:106DA0000357059607F050FD00287FF472AF2B6B58
:106DB000E6896AE7D46300204FF6FF73838070474B
:106DC00010B504460C3000F055FF044B04481C601D
:106DD000214600F049FD012010BD00BFD063002016
:106DE000D463002038B5044608480D4600F04CFA3C
:106DF00040B1012322462946044800F057FA00B169
:106E0000A58038BD014800F033FAF2E7A4660020FF
:106E100030B482B06D4685E806000446084944F85F
:106E20000C1B034695E80300064D84E805004FF669
:106E3000FF7118465D60198102B030BC704700BF19
:106E40007C900300FFFF010080884FF6FF73C01A9B
:106E500018BF0120704700BF8088704782B0C0F81B
:106E6000061002B0704700BF76DF70477FDF7047C3
:106E700086DF70478FDF704790DF7047B1DF704764
:106E8000B5DF704710B5074B03600446C06905F0D5
:106E900071FD206A05F06EFD606A08B105F06AFDBB
:106EA000204610BD9090030010B5094B03600446C6
:106EB000C06905F05FFD206A05F05CFD606A08B1FD
:106EC00005F058FD204607F0D9F9204610BD00BF57
:106ED00090900300F8B50446818000250121144FED
:106EE000217417261B2021732760E680608125818D
:106EF0001068C4F81300908896796676A4F8170095
:106F0000D2796273194618469DF8186004F0D4FED1
:106F10003146E061304604F0CFFEC4E90A554FF631
:106F2000FF73206265746562A574E3812046F8BD35
:106F300090900300007C7047407C7047407B704716
:106F4000C0887047008970472DE9F04186B004ACD5
:106F5000868890460F4620464FF4285100F070FE78
:106F6000CDE900784FF6FF75012094E80C0031461A
:106F7000CDE90205024800F0E9FA06B0BDE8F0816B
:106F8000D463002008B513218088FFF76DFFB0FAA5
:106F900080F0400908BD00BF08B56621006A05F011
:106FA0003DFB003018BF012008BD00BFC2898188A9
:106FB000407B01F051BE00BF70B50B88113B96B00D
:106FC0000C460546462B78D8DFE813F0850088008C
:106FD00047008B007700770077007700A200B100B0
:106FE000770077007700770077007700BD00C50055
:106FF000CB00D1007700770077007700770077002B
:1070000077007700770077007700770077007700C8
:107010007700770077007700770077007700D4005B
:107020007700D70077007700770077007700770048
:107030007700770077007700770077007700770098
:107040007700770077007700770077007700E70018
:10705000EE007700F4007900020106F081FB0128C0
:107060004FF0500000F0DF8004F094FDE86220B3A0
:10707000502200210FF02FF84FF6FF737049EB817B
:107080006C7BEB6A0868097902936A46012C1171DE
:107090004FF0000403F11C0103F138030090069146
:1070A0000793A888059418BF2246214602ABCDE974
:1070B0000344CDE90844FFF7D9FE16B070BD8B79C3
:1070C000002BFAD1406AAB740028F6D01A46194654
:1070D00004F024FEF1E700230374EEE74B890381FB
:1070E000EBE75022002102A80EF0F5FF02AA218A48
:1070F000687B01F0CBFD034600287AD0002302A96B
:1071000010AAA888FFF7B4FEBDF81A30EB81D4E7C7
:107110000B7AC46A002B7BD006F022FB01282046A4
:1071200000F0848004F048FD0023EB62C5E70B7A91
:10713000112B64D1A86A0028BFD000231A46194633
:1071400004F0ECFDB9E716A9002321F8503D808832
:10715000FFF790FEB1E70B7A002BAED14B7A0373A9
:10716000ABE7002211468088FFF786FEA5E70B8972
:107170004381A2E74B89C3809FE78B7A002B9CD089
:10718000002600231A461946286A04F0C7FD013676
:10719000A37AF6B2B342F4D88FE700231A46194611
:1071A0008088FFF76BFE88E7406A0123AB740028F4
:1071B000C3D182E7417B234801F0E0F9E1888142B5
:1071C00028BF014689B2E980A888FFF759FE74E715
:1071D0008B79002B3FF471AF002600231A46194625
:1071E000E86904F09BFD0136A379F6B2B342F4D806
:1071F00063E7A8881A461946FFF73AFE5DE7C28999
:107200008188407B01F072FD98B101236B7491E796
:1072100001234374638AC38122468188407B01F045
:1072200009FDEC6A78E70EF001FF1FE70EF006FF9C
:107230007AE7034602460146A888FFF71FFEE4E707
:10724000D3660020D46300209BDF70479DDF70472A
:107250009EDF704710B50446043001F04FFC034B2D
:10726000236000232375204610BD00BF0100FFFFEF
:10727000017D01B1704710B50446043001F048FCAF
:107280000123237510BD00BF007D704782B00160EF
:1072900002B07047036800209AB262F30F001B0C23
:1072A00082B063F31F4002B0704700BF2DE9F04386
:1072B000174685B0041D884699460A2201A905464D
:1072C00007F10C06204601F03DFC49464046324697
:1072D000FFF7BAFF20B10024204605B0BDE8F083D7
:1072E00020464FF47A7101F033FC0028F3DDBDF83D
:1072F0000430002BEFD03046DDF8061000F0CEFC55
:1073000004460028E7D0DDF80A0028600146384628
:10731000FFF7A4FD2B8801332B80DDE72DE9F04F2B
:107320008BB0CDE904010292069306F019FA012808
:107330004FF0520000F0978004F02CFC0646069BAC
:10734000002B00F09A80029A013BDBB2043202EB80
:107350008309049B043307930023039352220021E3
:1073600030460EF0B8FE079C31462046522201F00E
:10737000E9FBDDE90410FFF769FF00283ED14FF477
:107380007A71204601F0E4FB002837DD3388082BB2
:107390005CD9082333804FF00008C2464FEA8A03C5
:1073A0000193DDF808B0534400935F00DBF8000060
:1073B0005C46F5190BF1040BFFF786FA38B95BF858
:1073C000040CD5F80210043000F068FC08BBD94565
:1073D000ECD108F1010833885FFA88F89845C24675
:1073E000DCDB013B03EB830306EB4303049A5B897D
:1073F00001331380069B039A9342AFD806F0B0F98D
:107400000128304633D004F0D7FB03980BB0BDE819
:10741000F08F009B206806EB43010231FFF746FA2C
:10742000AB79DA0601D49B060BD5019B534406EBDE
:10743000430A049B5A88BAF80A3001339BB293423C
:1074400007D9039B0133DBB20393C2E7002BA2D120
:10745000C7E7ADF82430ADF826202068099A0599D1
:10746000FFF740FAEDE70EF0E1FD064667E70EF0A4
:10747000E5FD03980BB0BDE8F08F0393BEE700BFB6
:1074800070B51546041D0E46204629461A4601F0E1
:1074900059FB04A93046FFF7DBFE08B1002070BDA0
:1074A00020464FF47A7101F053FB0028F6DD28885E
:1074B0000028F3D070BD00BF10B50B88322B18D058
:1074C000332B0CD0302B00D010BDCB88041D0BB952
:1074D0004B89FBB92046BDE8104001F07FBBCB884B
:1074E000041D002BF6D14A89002AF3D002EB420298
:1074F00008E0CB88041D002BECD14A89002AE9D092
:1075000002EB82025200023292B20A31204601F0AE
:107510004DFBDFE70A310A22204601F047FBD9E79D
:10752000A0DF704738B50446F82500F5F87001F083
:10753000E5FA2A46204600210EF0CDFD2A466019C4
:1075400000210EF0C8FD204638BD00BF2DE9F043F4
:1075500085B00546BDF83800BDF83C40ADF80C00DC
:107560006F461B48ADF80E4087E80C008846BDF812
:10757000349001F00BF805F5F875064604E0304646
:10758000FFF7E0FC04F0ECFA284601F00DFB04469E
:107590000028F4D10121284601F0BAFA4A460C9994
:1075A000284601F0CFFA3946404603AAFFF7B8FF54
:1075B00038B94FF4FA71284601F0CAFA20EAE074AB
:1075C000A4B2284601F0AEFA204605B0BDE8F0832B
:1075D000D46300202DE9F04F8F880E8885B088464F
:1075E000054639467F4800F0D1FFA6F11003012B74
:1075F000814640F28B8095F854203AB3002404F180
:107600001603502E55F823A059D0512E1AD198F8B0
:107610000630B8F808B0022B43D0BBF1000F11D0F0
:107620005146684601F0C0FDBDF800305B4549D0C9
:10763000514602A801F0B8FDBDF80C305B4541D0C1
:1076400095F854200134E4B29442D8D395F84C31E3
:10765000002B00F0C38005F5A679002404E095F81E
:107660004C310134A34246DD59F8040FFFF732F9DB
:10767000B842F4D1382E03D0392E01D0362EEED1B7
:10768000B8F80AA0BAF1000FE9D0D9F800B058460E
:10769000FFF724F95045E2D158464146FFF7B2FAC8
:1076A000DDE798F80E30062BB7D1DAF800305046F7
:1076B000DB68414698474846FFF73EFCC0E7B8F80C
:1076C00006B0AAE7DAF8003050464146DB68984732
:1076D0004846FFF731FC0028B2D0502EB0D15146B9
:1076E00002A801F061FDBDF80C305B45A8D1484609
:1076F000FFF75CFCA4E7112E2AD0352E03D1B8F891
:107700000A30002B5BD105B0BDE8F08F2B78002B41
:107710003FF471AF112E4FF000040CD005EB840341
:107720003946586803685B68984701342B78E4B29F
:10773000A342F3D85FE705EB840339465868036832
:107740001B68984701342B78E4B2A342F3D852E780
:10775000002473B105EB8406D6F85001FFF7BAF8A0
:10776000B84204F101031FD095F84C21DCB2A242CB
:10777000F0D895F8F8100029C5D0002405EB840353
:10778000621CD3F8FC008388BB4203D0D4B28C4285
:10779000F4D3B8E703681B689847013495F8F810EC
:1077A000E4B28C42EAD3AEE7D6F85001FFF788F88E
:1077B000013495F84C31E4B2A342CBD8D9E705F5B2
:1077C000F8752846B8F80C2008F1100101F0EEF920
:1077D000284605B0BDE8F04F01F000BA112E8CD15B
:1077E000C7E700BFD463002038B590F84C5175B19D
:1077F000D0F8503199420BD000F5A873002403E073
:1078000053F8042F8A4204D00134AC42F8D138BD79
:107810000024054605F01EFC95F84C31013BDBB217
:1078200005EB830285F84C315434D2F8503145F8D9
:1078300024300023C2F85031BDE8384005F0B0BC18
:1078400090F84C31272B0CD810B4024603F15404A5
:10785000013380F84C31012042F824105DF8044BCC
:1078600070470020704700BF90F8F830132B08D8FD
:1078700000EB8302013380F8F8300120C2F8FC10DD
:1078800070470020704700BF8ADF704730B403465E
:107890001F22012418628025828480F82D40002256
:1078A0000B4C80F82E50C0E911228262C0F846408D
:1078B00080F82C2080F82F20028680F83820426340
:1078C000C0E90F22C264A0F8502030BC704700BF4E
:1078D000A000500090F8443061F3820380F84430F7
:1078E000704700BFA0F84610A0F84820704700BFBE
:1078F000C163704780F82D10704700BF1F2310B57B
:10790000A0F84A1004460062838400F1200144304C
:10791000FFF7BAFF08B1002010BD034800F04EFE8B
:10792000012084F82C0010BDD463002000F1200158
:1079300008B50020FFF7A8FFB0FA80F0400908BDA5
:107940002DE9F0478CB06F4638460C4687E80C00AE
:1079500000F082F9C0B210282ED0019F0722062322
:10796000D4F818A094F81C808DF80D208DF80C30F8
:10797000C6084FF000091F22002104A80EF0ABFB3F
:10798000B8F1010F06D8B9F1000F34D000200CB0C7
:10799000BDE8F08703AB514613F809C043460A78A7
:1079A0004878D443604502F10105234407D013F021
:1079B000FF032944F3D1E6E703220223D0E7013A8B
:1079C0000231D5B2DFD02A4604A80EF060FB002DAC
:1079D000D9D004AC02E012F0FF05D4D032462046E4
:1079E00039460EF045FB3444AA1B0028F3D1012090
:1079F0000CB0BDE8F0874FF00109BCE72DE9F04776
:107A00000C320C4692E803008CB002AF87E803000A
:107A1000384600F021F9C0B210282ED0039F07226B
:107A20000623D4F818A094F81C808DF805208DF852
:107A30000430C6084FF000091F22002104A80EF0F0
:107A40004AFBB8F1010F06D8B9F1000F34D000207D
:107A50000CB0BDE8F08701AB514613F809C04346AE
:107A60000A784878D443604502F10105234407D0E1
:107A700013F0FF032944F3D1E6E703220223D0E702
:107A8000013A0231D5B2DFD02A4604A80EF0FFFA3F
:107A9000002DD9D004AC02E012F0FF05D4D032465C
:107AA000204639460EF0E4FA3444AA1B0028F3D1EC
:107AB00001200CB0BDE8F0874FF00109BCE700BF22
:107AC000F0B50B888E88103B85B00C4605460D2B13
:107AD0002CD8DFE803F070072B2B2B2B2B2B2B2B19
:107AE0002B5B2B2D836AF340DB071FD55048FEF735
:107AF0003FFED8B9AB6A95F82C20012404FA06F6AB
:107B000023EA0606AE628AB995F82D3073B11F23B9
:107B10002D62AB8405F1200105F14400FFF7B4FEAE
:107B200020B9444800F04AFD85F82C4005B0F0BD6E
:107B300090F92E2091F91B309A4220DC90F83830D1
:107B400001F108079BB1002602E0D6B2B3420CD97E
:107B50006B6B03EBC6030CCB39462846FFF7F0FEF0
:107B6000721C95F838300028EFD09E4207D095F867
:107B70002F30002B38D094F82430012B41D805F158
:107B800020010020FFF780FE05B0F0BD0B7A012B2D
:107B9000CCD1002480F82C40264800F023FD2A6C2C
:107BA000002AC3D004AB0094214643F8044D20467C
:107BB00006F04AFEBAE7CB7B022BB7D10122836ADB
:107BC00002FA06F633430022836280F82C20ADE7E8
:107BD0000139CCB2911CD2D0022C20D95388ADF8F7
:107BE0000C302A8E9A42CAD1EA6B002A9ED004AB8E
:107BF000012143F8047D38460091242106F024FE3B
:107C000094E7226A11785078CC43FF2801F10106ED
:107C10002344DDD013F0FF033244F3D1AFE7224613
:107C200003A80EF034FA002CA9D0BDF80C30D8E728
:107C300094660020D463002062DF704763DF7047E2
:107C4000012200230180827043607047002341605D
:107C500083700380704700BF8378012B08D042688F
:107C60000AB180207047012B8CBF80200020704714
:107C70001020704708B5837873B9436863B1024632
:107C8000911C1846FFF7D8FF10205168FFF7D6FF68
:107C9000B0FA80F0400908BD012008BD827882B0AA
:107CA000C1F307439A42019102D0002002B070470D
:107CB0000088BDF80430C01AB0FA80F0400902B064
:107CC000704700BF4DDF70474EDF70474FDF704792
:107CD00050DF70474BDF704710DF70477CDF704725
:107CE00060DF704769DF704761DF704766DF7047AC
:107CF00067DF7047704700BF042006F0F1BF00BF88
:107D000030B52C4C2C4D83B04FF0FF31D4F8080324
:107D100004F084FC0028F7D06DB301A8FFF7DAFF68
:107D200005280346F0D00028F7D1019A911E10468D
:107D30000929F2D80FF2040C5CF821F0A77D0200AB
:107D4000A77D02001B7D02001B7D02001B7D02003F
:107D50001B7D02001B7D0200917D0200917D0200CF
:107D6000917D02000A2B04D0092B21D00B2B02D1CC
:107D7000012003F07DFC01A8FFF7ACFF0528C3D06C
:107D80000028F8D1019BA3F10902022AF3D8E9E700
:107D90000A2A04D0092A09D00B2ABED10123184689
:107DA00003F066FCB9E70DF0B9FBB6E70223F6E78E
:107DB0000220DEE7D46300201D5503002DE9F04FBB
:107DC00089B005F0CDFC01284FF4FA7000F08481F1
:107DD00003F0E0FE0646B34C06F1080304F55877BD
:107DE00004F5007A03934FF0FF31D4F8040304F054
:107DF00015FC0028F7D04FF4FA730DF11601304648
:107E0000ADF81630FFF770FF10B10528EBD0F2E7A0
:107E1000B6F80490B9F1130F00F2208104EB890346
:107E2000D3F814531DB131462846FFF7C5F83388FF
:107E3000013B1B2B5BD8DFE813F0A3005A005A006C
:107E40005A005A005A005A005A005A005A005A0062
:107E50005A005A005A005A00A8001C005A005A0042
:107E60005A005A005A005A005A005A005A005A0042
:107E7000FE00DFF844824FF0000B58F8043F18462C
:107E800033B1FFF757F818B10BF1010B5FFA8BFB19
:107E90004745F2D1BBF1000F06D194F810331BB166
:107EA0005946042006F000FF2846FFF747F801284E
:107EB00000F0F180D4F8CC2262B10223CDF8189002
:107EC000002196F808C00093084606ABCDF81CC008
:107ED00006F0BAFC09F1C40804EB8803586810B135
:107EE00003685B68984704EB880300225A603146B8
:107EF000504601F0E5F831466B48FFF7E1FDB4F874
:107F000012334B45338800F0AB80102B1ED02DB3BD
:107F10002846FFF713F8012803D13146634801F0E2
:107F200085F92846FFF70AF802281BD06048FFF7BA
:107F3000ABF900BB31465B48FFF74CFBD4F8683324
:107F4000002B3FF458AF3046984754E7F37B012BA2
:107F5000DDD1B388A4F81233002DD9D1314653486E
:107F600001F064F953483146FEF722FC5048FFF710
:107F70008BF90028DED031464D48FFF79DFAD9E74E
:107F800000214846FFF7B2FEB1E74FF00008D4F8F1
:107F90000C03CDF80080434642460321464D05F0D0
:107FA000C1FE55F8043F184633B1FEF7C3FF18B1C0
:107FB00008F101085FFA88F8BD42F2D194F8103355
:107FC000002B58D109F1C40804EB8805686820B17A
:107FD00003685B68984700236B60F37B012B0BBF42
:107FE00094F8F33294F8F93294F8F2B294F8F8B2C3
:107FF0000293302006F032F9029B0093039A5B460D
:1080000049460546FEF766FF04EB880328465D6097
:10801000FEF794FF012851D0D4F8C822002A3FF47B
:1080200066AF012300210093084606ABCDF81890F7
:1080300006F00AFC5BE7D4F86423002A3FF457AF4C
:10804000CDF818900223002196F908C00093084645
:1080500006ABCDF81CC006F0F7FB48E70546E6E6A0
:10806000102B3FF473AF112B7FF451AF4FF6FF731A
:10807000A4F812334BE718F1000118BF01210420C6
:1080800006F012FE94F81033002B9BD0012104203F
:1080900006F00AFE96E7D4F8BC22002A7FF40DAF62
:1080A00018E700BFD46300203066002084660020FB
:1080B000A466002094660020E4660020D4F8B8226C
:1080C000002A3FF414AF0021009006AB0846CDF81B
:1080D000189006F0B9FB0AE70DF0A8FF06467AE60D
:1080E00038B50446FFF71EFA04F5007000F076FF7D
:1080F00004F50F7000F06EFF04F51770FFF7C6FB74
:1081000004F52C7001F05CF804F53070FEF71CFBF0
:1081100004F53470FFF79EF84FF480530025C4F83F
:10812000E83222482249234AC4F8EC0240F2011303
:10813000C4F8F012C4F8F422A4F8F832A4F8FA5201
:10814000A4F8FC52294604F5457050220DF0C3FFF7
:10815000C4F8FF5294F8FF3294F80223C4F8045391
:10816000032143F0010361F306130A4301204FF694
:10817000FF71C4F80853C4F80C5384F8FE52C4F8D5
:108180006853C4F8645384F8100307251020A4F83A
:108190001213032184F8010384F8FF3284F800539A
:1081A00084F8022384F80313204638BD010A17001F
:1081B0000300010117000300F0B580F8FC128DB038
:1081C00080F8FD22BA4E044606F0ECF806F0F2F80C
:1081D00006F0AAF80CA8336940F8243DB549FFF72A
:1081E0007BFD18B1002528460DB0F0BD0120FFF73A
:1081F0006BFD0120FFF766FD0120FFF767FD09A871
:10820000FFF766FD099B9B0706D5AB4BD3F80435FA
:1082100013B9022003F02CFA0023A84A94F8ED5277
:10822000049209A90120CDE909330B938DF824505C
:10823000FFF758FD0028D5D194F8FD320B90CDE919
:108240000900181C18BF012094F8FC528DF8270073
:10825000049A8DF8263009A940208DF82550FFF7A3
:1082600041FD0028BED194F8EC120990034661F359
:108270000003CDE90A00049A8DF8243009A9A02052
:10828000FFF730FD0028ADD1D4F8E8320A900B900A
:10829000049A099309A9A120FFF724FD0028A1D180
:1082A00094F8FC32002B40F0B38094F8FD32002BA0
:1082B00048D000230225B4F8F472049A099309A95E
:1082C0002320CDE90A338DF82450ADF82670FFF74E
:1082D00009FD002886D1CDE9090094F8FD72B4F8B3
:1082E000F6320B90049A8DF8245009A920208DF8BD
:1082F0002670ADF82830FFF7F5FC00287FF472AF48
:10830000099094F8F832049A8DF82450CDE90A00C7
:1083100009A922208DF82630FFF7E4FC00287FF41D
:1083200061AFCDE909000B9094F8F932049A8DF809
:10833000245009A921208DF82630FFF7D3FC00280E
:108340007FF450AF04A8FFF7CBFC00287FF44AAFBE
:10835000C3B2CDE9070043F0010307A902208DF85D
:108360001C30FFF7C5FC00287FF43CAF04F52C70EF
:1083700000F034FF054600283FF434AF0CA8337DED
:1083800000F8283D0B224E49FFF7A8FC00287FF497
:1083900029AF94F8FD32002B40F0848003220021A5
:1083A000012003F047FCC4F8040300283FF41AAF8F
:1083B00005AB0326CDE900634FF4A06200234149D9
:1083C000414804F06FFC32460021012003F032FCEA
:1083D000C4F8080300283FF405AF06ABCDE90063FD
:1083E000C822002339493A4804F05CFC394B4FF469
:1083F00080021A60384B00930023184601224FF484
:10840000807105F037FCC4F80C0300F0F3FBEAE6DA
:1084100009900123B4F8EE52049A8DF82430CDE986
:108420000A0009A92320ADF82650FFF75BFC0028BD
:108430007FF4D8AECDE9090094F8FC72B4F8F0529C
:108440000B90049A8DF8243009A920208DF826700D
:10845000ADF82850FFF746FC00287FF4C3AE099022
:1084600094F8F252049A8DF82430CDE90A0009A953
:1084700022208DF82650FFF735FC00287FF4B2AE9D
:10848000CDE9090094F8F3520B90049A8DF824304A
:1084900009A921208DF82650FFF724FC00283FF47D
:1084A00004AF9FE604F53070FEF75CF976E700BF95
:1084B00098900300F57C02000070024000600020EC
:1084C000C0900300CC900300BD7D0200D09003005B
:1084D000017D020000E100E0F97C020030B5084BAC
:1084E00083B002AC1B7D04F8043D08460D460EF037
:1084F00094FC294682B22046FFF7F0FB03B030BD62
:108500009890030090F9FE02704700BF70B50546D1
:1085100082B0D0F80C030C4605F030FC0B4AA402E4
:10852000A2FB0432002306469209D5F80C030093FF
:10853000042105F0F7FB3EB9D5F80C03009633464D
:108540003246032105F0EEFB02B070BDD34D621040
:1085500013290BD810B500EB8100D0F814431CB1DF
:108560002046FEF7E7FC18B9012010BD0120704736
:108570002046BDE81040FEF705BD00BF01290CBF35
:10858000B0F8EE02B0F8F402704700BF13299ABFAA
:1085900000EB8100D0F814030020704710B5064CA2
:1085A0000021D4F8080303F07BFED4F80403002173
:1085B000BDE8104003F074BED463002090F810337F
:1085C00003B9704710B582B0D0F80C4304F04AFDEF
:1085D0000023024600932046012105F0A3FB02B0D0
:1085E00010BD00BFF0B583B0002507462B46D0F87C
:1085F0000C0300952A46032105F094FB07F544740B
:1086000007F5587654F8041F084621B1FEF792FC8E
:1086100008B10135EDB2B442F4D197F810330BB97B
:1086200003B0F0BD291C18BF0121042003B0BDE830
:10863000F04006F039BB00BF0148FFF751BD00BF55
:10864000D463002070B582B06C46054641F60F0138
:108650002046FFF7F5FA2E4694E806002846FEF776
:10866000D7FB084B46F8143B204642F61921FFF78A
:10867000E7FA304694E80600FEF7DEF8284602B036
:1086800070BD00BF189103001430FEF7EDB900BFB4
:1086900010B50446FEF794FB04F114002146FEF7E2
:1086A000EBF8012010BD00BF70B582B005460E4644
:1086B000FEF798FB18B90024204602B070BD02AA4C
:1086C00005F1140342F8043D4FF6FF73AB800446F6
:1086D000012331460448FEF721FE0128EBD1204654
:1086E000AE8002B070BD00BFA466002030B583B07C
:1086F0006D46044641F60A012846FFF7A1FA95E8BF
:1087000006002046FEF784FB024B2360204603B0A0
:1087100030BD00BF2C91030008B5FEF751FB0120CE
:1087200008BD00BFFEF75EBB2DE9F041064692B0E2
:108730001A4890460F46FEF7ADFD02AD0190D6F8FF
:1087400006101648FEF7A2FD04AC284642F6292181
:10875000FFF776FA95E806002046FEF76DF83146F9
:108760002046FEF789F8B1880C4802942A46012376
:10877000FEF7D4FD58B9054601990848FEF786FD75
:108780002046FEF733F8284612B0BDE8F081424695
:1087900039462046FEF730F90546EDE7A46600208D
:1087A0002DE9F041064692B01A4890460F46FEF772
:1087B00071FD02AD0190D6F806101648FEF766FD71
:1087C00004AC284642F62421FFF73AFA95E8060061
:1087D0002046FEF731F831462046FEF74DF8B188C5
:1087E0000C4802942A460123FEF798FD58B9054625
:1087F00001990848FEF74AFD2046FDF7F7FF284695
:1088000012B0BDE8F081424639462046FEF7F4F842
:108810000546EDE7A466002000207047B0F8A000F0
:10882000704700BF70B50D461646FEF759F804466E
:1088300032462946943006F009F9D4F8AC301BB121
:108840002046BDE87040184770BD00BF08B592B221
:10885000943006F047F908BD08B592B25C30FEF7D7
:1088600041F908BD00B583B094300DF10702002135
:1088700006F072F920B19DF8070003B05DF804FB23
:108880004FF0FF30F9E700BF943006F0CDB800BFDD
:10889000B0F88C00704700BF10B501680B4A0C6936
:1088A000944282B00AD1943001220DF1070106F002
:1088B00019F940B19DF8070002B010BD01220DF179
:1088C0000701A047F5E74FF0FF30F5E74D880200BC
:1088D00010B504680A4AA46982B094428DF8071062
:1088E00007D101220DF107015C30FEF7FBF802B061
:1088F00010BD01220DF10701A04702B010BD00BF5D
:1089000059880200803006F08FB800BF08B592B2D7
:108910004830FEF7E7F808BD00B583B080300DF1B0
:108920000702002106F018F920B19DF8070003B0F6
:108930005DF804FB4FF0FF30F9E700BF00B550F8D9
:10894000143C0D4A9B6983B093428DF8071008D1FF
:1089500001220DF107014830FEF7C4F803B05DF8BD
:1089600004FBA0F11401084601220DF1070198470C
:1089700003B05DF804FB00BF5988020000B550F851
:10898000143C0E4A1B69934283B00BD18030012204
:108990000DF1070106F0A6F860B19DF8070003B0DD
:1089A0005DF804FBA0F11401084601220DF1070156
:1089B0009847F1E74FF0FF30F1E700BF4D88020024
:1089C000F0B583B06D4604460F4628461849FFF7B8
:1089D0003DF995E806002046FEF71AFA154B1649B0
:1089E00003F10802002638334FF47A70C4E90536E3
:1089F000E06122602846FFF729F995E8060004F1B6
:108A00002400FDF719FF28460C49FFF71FF995E8E8
:108A1000060004F15C00FDF70FFF3A4604F19400F4
:108A2000012105F0D9FF2046C4F8AC6003B0F0BDC9
:108A3000AC910300389103009C9103008C910300DA
:108A40002430FEF7A9B800BFC0F8AC10704700BFD3
:108A500038B50446943005F0D1FF2046FEF7B0F952
:108A600004F12405214604F15C00FDF705FF2146D1
:108A70002846FDF701FF284601220249FEF784F847
:108A8000012038BD25880200F0B583B005460E46AA
:108A9000FEF7A8F918B90024204603B0F0BD4FF640
:108AA000FF73044605F15C00AB80009005F12407DC
:108AB00002236A46314605480197FEF72FFC02283B
:108AC000E9D12046AE8003B0F0BD00BFA46600200F
:108AD00010B50446FEF770F92368074A5B6A9342B3
:108AE00005D104F19400BDE8104005F09DBF20467B
:108AF000BDE81040184700BF89880200002201210C
:108B000042700170C0E90122C2818281704700BFBA
:108B1000017001B1704710B504460A2003F0CCF88B
:108B2000606010BD037810B5044613B9406803F0C7
:108B300021FF002301226370C4E90133E381A38193
:108B4000227010BD002381608281C381704700BF05
:108B5000037870B504460D46B3B940681149AD02BB
:108B6000A1FB053101238909637003F057FDB0B9FA
:108B70004FF0FF352378002666701BB1606803F064
:108B8000F9FE6660284670BD03220021012003F033
:108B900051F860600028E1D14FF0FF35F2E7E58938
:108BA000ADB2E7E7D34D62104078704770B5868963
:108BB000964204463546806828BF154621B12A46AC
:108BC0000DF065FAA068A689E3892B442844761B3A
:108BD0009BB2A060A681E381284670BD406820B1A9
:108BE00000231A46194603F099B87047B1DF704761
:108BF000B2DF704708B50C480CF0CAFB0B490A48B5
:108C000007F0D8F958B10A49074807F0D3F900B17D
:108C100008BD07490448BDE8084007F0E7B9034923
:108C2000014807F0E3F9EEE7C87C0020F491030067
:108C30000892030010B586B00323CDE90301144662
:108C40000093104603AB034A0594502105F0FCFD48
:108C500006B010BDD18D02004FF6FF739A4211D0BD
:108C600070B586B00D4603230021064614460093D6
:108C7000084603AB044A0396CDE9045405F0E4FD2D
:108C800006B070BD00207047CD8E020030B5144B89
:108C9000144CA1B015460A4601280CBF21461946BE
:108CA00068460EF073F8694607A80F4B002207F0DC
:108CB00001FB07A807F092FC18B90024204621B058
:108CC00030BD044607A807F095FA5028F5D10246B2
:108CD000294607A807F0E4FB07A807F03BFCEDE7EF
:108CE000D8910300BC910300C87C00202DE9F0411D
:108CF0004FF6FF73A0B09A4200AF5CD0314B0C46E8
:108D00003149012818BF194638460EF03FF8394658
:108D100007F11C002D4B002207F0CCFA07F11C00D4
:108D20006D4607F05BFC50B9002407F11C0007F00A
:108D300011FC2046AD468037BD46BDE8F08107F105
:108D40001C0007F057FA061E08DD07F11C0007F0AB
:108D5000E5FB311807F11C0007F0C2FB07F11C000E
:108D600007F048FA061E08DD07F11C0007F0D6FBE5
:108D7000311807F11C0007F0B3FB07F11C0007F0E6
:108D800039FA0028D0DDC31D23F0070386B2E84678
:108D9000ADEB030D6946324607F11C0007F080FB7E
:108DA0002046694632460323FFF720FFB0FA80F4DD
:108DB0006409C546B9E7002420468037BD46BDE8B2
:108DC000F08100BFD8910300BC910300C87C002053
:108DD000F0B51446ADB0012804AF0E4607BF528A65
:108DE00035493649E28D38460DF0D0FF39463448D2
:108DF0006D4607F0DFF878B9394607F13C00304B93
:108E0000012207F057FA07F13C0007F0E7FB40B9F1
:108E1000A437AD46BD46F0BD3946294807F040F9B4
:108E2000EAE7502107F13C0007F012FA50222146F0
:108E300007F13C0007F04CF92022002107F11C004B
:108E40000DF049F931461F48FFF7A0FB07F11C015F
:108E50002022FEF779F83B7FA3B994F8491094F8E3
:108E60004D3094F84E20039194F84A10029194F8F2
:108E70004B10019194F84C10009107F11C0012491D
:108E80000DF084FF07F11C000DF0C7FF013084B224
:108E9000E1B207F13C0007F0DBF907F11C012246C3
:108EA00007F13C0007F014F907F13C0007F052FB12
:108EB000A437AD46BD46F0BDBC910300D891030078
:108EC000C87C0020D46300201C9203002DE9F043ED
:108ED000A3B000AF07F18804002324F8823D0D46BB
:108EE000804619469146032322462846FFF780FE16
:108EF000FB886E4623B9B5468C37BD46BDE8F08386
:108F00000733DB08A6EBC3039D4622462846694685
:108F10000323FFF76DFE6D4604460028EBD1274B77
:108F200027494A46B8F1010F18BF194607F1080052
:108F30000DF02CFF07F1080107F12400214B01225D
:108F400007F0B8F907F1240007F048FB0028D2D059
:108F5000214607F1240007F0C3FA07F1240007F0C7
:108F600049F9041E08DD07F1240007F0D7FA21189B
:108F700007F1240007F0B4FA07F1240007F03AF9EA
:108F8000041E08DD07F1240007F0C8FA211807F1D4
:108F9000240007F0A5FAFC8807F12400E1B207F0ED
:108FA00057F92246294607F1240007F091F807F106
:108FB000240007F0CFFAB5469EE700BFD891030022
:108FC000BC910300C87C002072DF704773DF7047DC
:108FD00077DF70470022C2770270704730B440F2EA
:108FE000FF12094C094902840125002280F8225011
:108FF000C0E90A41C277027080F823204262C0E9CA
:109000000C22826330BC70472000F40020001E0058
:10901000F0B502EB8203264E87B003EB83030F46C5
:109020009B00154631680022CDE90272ADF80C3084
:1090300090F8213000928DF80030CB070446019261
:10904000CDE9042209D41B4A1B4BD17FC07F9981F3
:1090500001211C609A60988031606A46164904F1CB
:109060002000FFF7B1FF10B1002007B0F0BD13489A
:1090700094F82060FFF746FA314602460120FFF7D8
:10908000A7FF0028F0D1012194F82000FFF79EFFF0
:109090000028E9D10948FFF791FA638EA7859D4220
:1090A00094BF5B1BDB1A0120638684F82300DCE796
:1090B000406700201066002044670020D463002031
:1090C00030B50B888D88112B85B004462CD0262B0B
:1090D0000FD0102B01D005B030BDCB7B012BFAD1C6
:1090E000426A03FA05F515430023456280F82330F0
:1090F000F1E70B7A012BEED1002380F823304FF4F7
:10910000FA712748FFF702FA238E002B30D0658EC4
:10911000002D36D0A36B0BB19847658E618D2A4622
:109120002046FFF775FFD6E7436AEB40DB07D2D551
:109130001C4800F05FF80028CDD1636A94F8231032
:10914000012202FA05F523EA050363620029C2D170
:1091500094F82230002BBED0238E6386FA2110486B
:10916000FFF7D4F9E28D218D2046FFF751FFB2E7DA
:10917000A36B03B198470022618D2046FFF748FF9B
:10918000A9E70748FFF72EFA626B002AA3D004ABC9
:109190000095294643F8045D284605F055FB9AE7FB
:1091A000D46300208466002051F82A2F02604A68A8
:1091B0004260704775DF704778DF70477ADF70472D
:1091C000054A034692E80300002283E80300C3E94E
:1091D00002221846704700BF3C92030008B5FFF713
:1091E000EDFF08B1002008BDFFF7E6FFB0FA80F000
:1091F000400908BDF8B500240B4F2546A1B23846FA
:10920000FFF7C4F90134064648B1FDF793FE30B1CB
:109210003046FDF793FE012804BF0135EDB2142C52
:10922000ECD12846F8BD00BFD46300200A88102A7C
:1092300003D1CA7B012A0B4600D0704710B40A8ABA
:1092400001884488914201D8A24205D901465DF8BF
:10925000044B9888FFF7AEBF5DF8044B704700BF22
:1092600069B170B5054608460C460DF0D6FD2B6871
:109270000246214628465B68BDE87040184708460C
:10928000704700BF03681B68184700BFF0B5066849
:109290008BB01AB9336898470BB0F0BD0AAF0B46D4
:1092A000D2B20021022A07F8041D05462CBF14463D
:1092B0000A241846B0FBF4F204FB1201CBB20929D0
:1092C00003F130018ABF3733CBB2DBB2104607F867
:1092D000013D002AEED138460DF09FFD736802462D
:1092E0003946284698470BB0F0BD00BF03680249D5
:1092F0005B680222184700BF44920300036870B500
:1093000005460C465E6849B108460DF086FD2146CB
:1093100002462846B0472B685E680446284602226B
:109320000149B047204470BD44920300F0B50546A2
:109330008BB006685AB93368984704462B681749BA
:109340005B6828460222984720440BB0F0BD0AAF64
:109350000B46D2B20021022A07F8041D2CBF144686
:109360000A241846B0FBF4F204FB1201CBB209291F
:1093700003F130018ABF3733CBB2DBB2104607F8B6
:10938000013D002AEED138460DF047FD73680246D4
:109390003946284698470446D0E700BF4492030068
:1093A000F0B504468BB00F460568002A44D00A2A5F
:1093B00026D1002945DB0AAE0023334806F8043DD8
:1093C0000B46A0FB0312D20802EB8201A3EB410380
:1093D000303306F8013D1346002AF2D130460DF035
:1093E0001CFD314602466B682046984706462368B6
:1093F00026495B6820460222984730440BB0F0BDF6
:109400000AAED2B20023022A06F8043D2CBF104651
:109410000A200A46B2FBF0F100FB1127FBB2092F2C
:1094200003F130078ABF3733FBB2DBB20A4606F8D6
:10943000013D0029EED1D1E72B68C9B29847064615
:10944000D5E72B682D2198470AAD002306460E4824
:1094500005F8043D7B42A0FB0321C90801EB810212
:10946000A3EB4203303305F8013D0B460029F2D14E
:1094700028460DF0D2FC2368024629465B68204648
:1094800098470644B3E700BFCDCCCCCC4492030050
:109490000EB430B5C2B045A9054651F8042B019170
:1094A0000B4602A84FF480710DF026FD2B68044690
:1094B00002A95B68284622469847204642B0BDE88C
:1094C000304003B0704700BFF8B51746E2B104461C
:1094D0000E46002502F038FBE06008E005F0CAF80F
:1094E00002F032FBD4E90223C01A90420AD2236868
:1094F00020461B6998470028F0DB0135AF4206F88B
:10950000010BE7D12846F8BD1546FBE770B592B0D0
:109510001D460C46164601A8422200210CF0DBFD38
:10952000412D02D8002012B070BD621CD2B20223BD
:109530008DF806408DF80E408DF826408DF81E20DF
:109540008DF827208DF8312040F20945052240F2A0
:1095500001248DF807308DF808308DF809308DF82A
:1095600012308DF821308DF822308DF833308DF89F
:109570003B30ADF80C502423ADF810408DF8152089
:109580008DF823201B4D8DF81630042201248DF810
:1095900020308DF8243006958DF81C408DF81F2062
:1095A0008DF830203046144D0A9540F608360823D1
:1095B0004FF411640A22ADF804608DF82C30ADF838
:1095C0002E4040238DF8342001A9062640F207558D
:1095D0000A4C8DF825604222ADF838508DF83C30A9
:1095E0008DF84330CDF83F400CF051FD422012B0D1
:1095F00070BD00BF20010524070580030705800218
:10960000A0F11000FFF782BF00B5002083B000F08A
:10961000E1F818B9019005F02DF8019803B05DF854
:1096200004FB00BF00B5002183B008460DF107021E
:1096300000F000F920B19DF8070003B05DF804FBCD
:109640004FF0FF30F9E700BF00B583B001220DF104
:109650000701002000F0C8F820B19DF8070003B012
:109660005DF804FB4FF0FF30F9E700BF002000F089
:10967000FDB800BF70B5164662B100200D46144615
:1096800000F082F82946224680B1002000F0E0F880
:10969000241A01D1304670BD054404F0EBFF0020D0
:1096A00000F072F8294622460028EED1361B3046DB
:1096B00070BD00BF002000F011B900BF30B50368D5
:1096C000154A5B6883B093428DF807101ED10020C5
:1096D00000F05AF80DF1070501242946224688B109
:1096E000002000F0B5F8241A02D1012003B030BDEB
:1096F000054404F0BFFF002000F046F8294622464A
:109700000028EDD1C4F1010003B030BD01220DF1FC
:109710000701984703B030BD75960200704700BF3F
:1097200000B5002083B000F02FF818B9019004F0C4
:10973000A1FF019803B05DF804FB00BF01B17047C1
:1097400000B583B00846694600F034F8009BB3F5D5
:10975000966F02D003B05DF804FB02F0ADF9F9E7B3
:10976000074A084B10B4002002F108044FF47A7144
:1097700030321C601A61C3E901015DF8044B704787
:10978000489203005467002010B5044600F016FC10
:1097900008B9002010BD00F019FC0028F9D1044BD5
:1097A0004FF4567202FB0434207900F0010010BD22
:1097B00068670020064A4FF4567303FB002050F8F8
:1097C000063F0B60838882798A718B80704700BF67
:1097D00068670020034A4FF4567303FB0020408B58
:1097E000704700BF68670020F8B54FF45674104EFC
:1097F00004FB00F404F1100092B2304400F052FA7D
:1098000035190746E978002001F0FEF828B96A8B7F
:10981000AB8A9B1A9BB23F2B01D83846F8BD04F5A2
:1098200036723244E978402301F0CEF83846F8BD6C
:109830006867002010B4054C4FF4567303FB0040DA
:1098400089B210305DF8044B00F09EBA68670020C2
:1098500010B5054C4FF4567303FB004092B2243010
:1098600000F0F4FA10BD00BF68670020F8B54FF4AF
:109870005674184D04FB00F42E190020B17801F045
:10988000C3F808B10020F8BD04F5467704F12400C0
:109890002F4428443946402200F004FA044608B90F
:1098A0002046F8BD00F08AFB0028EBD000F08EFBCC
:1098B0000028E7D13379DB07E4D53A46B17823466F
:1098C00001F082F80028EBD1034B1B68DA07D9D5E9
:1098D00000BEF8BD68670020F0ED00E0044A4FF4D8
:1098E000567303FB0020C38D008DC01A80B27047F1
:1098F00068670020F0B51A4C83B000214FF456720F
:10990000204601250E460CF0E6FBFF234FF44242B1
:1099100004F138016371E2802B460827009604F1B8
:1099200010004FF480722773258100F08DF92B46CB
:109930004FF4807204F59C71009604F1240000F04D
:1099400083F904F50E71284602F0C2FB04F522717A
:109950002062284602F0BCFB606303B0F0BD00BF8C
:109960006867002010B5074C002304F11000236045
:10997000237100F009FB04F12400BDE8104000F061
:1099800003BB00BF686700202DE9F0414B79022B33
:1099900082B004D00025284602B0BDE8F0818B7962
:1099A000022BF7D1CB79062BF4D82D4EB3782BB1FF
:1099B0002C4B1B68DB07EDD500BEEBE78B783370D3
:1099C0000C780C4407466378242B4FF009050BD123
:1099D000082A02D80FE0AA420DD323781C441D4464
:1099E0006378242BADB2F6D0052B16D0042B02D110
:1099F00063790A2B1FD0F178002001F005F80028C8
:109A0000C9D1728BB38A9B1A9BB23F2BC3D9F17811
:109A1000154A402300F0D8FFBDE72146384600F044
:109A2000D1FF0028C4D0A378737023781C441D4450
:109A3000ADB26378DAE70D4A94F800800192022310
:109A400001320092384604EB08011A4600F04EFF3E
:109A50000028ADD00E3518FA85F5ADB2CBE700BFC2
:109A600068670020F0ED00E0406A00206A6700208F
:109A700008B50B7803F06003202B01D0002008BD4F
:109A8000094B8A8818789042F8D14A78202A01D068
:109A9000012008BD054A002AFAD0991D0020AFF325
:109AA0000080012008BD00BF6867002000000000A2
:109AB00038B50B7803F06003202B01D0002038BDAF
:109AC000114A8B8815789D42F8D14B78202BF5D31D
:109AD000212B05D80632072300F0E4FF012038BD12
:109AE000222BEBD14C88147100F0C4FF074B43B11B
:109AF000C4F3400204F001010020FFF71FFE012023
:109B000038BD012038BD00BF686700203D970200C6
:109B10002DE9F843464CE2788A420F461E4654D15E
:109B2000A3B1444B04F5367505EB060904F11008A2
:109B300043B32946404600F051F96379FF2B02D028
:109B4000297899422DD00135A945F2D13A4B1BB164
:109B5000638B9BB2002B67D1E178002000F054FFAB
:109B600050B9628BA38A9B1A9BB23F2B04D9402326
:109B7000324AE17800F028FFA3789F4215D00120F7
:109B8000BDE8F88329464046013500F027F94D45E8
:109B9000DCD029464046013500F020F94D45F1D191
:109BA000D4E70020AFF30080CDE73946002000F075
:109BB0002BFFB0B1002EE2D016F03F03DFD1A17829
:109BC0001A46184600F000FFD9E7A3788B42ECD084
:109BD0001B4B186810F00100D2D000BE0020BDE879
:109BE000F88318494022A1F53D7000F05BF8054666
:109BF0000028DFD000F0E2F90028DBD000F0E6F921
:109C00000028D7D12379DB07D4D52B460D4AA1787C
:109C100000F0DAFE0028B2D1094B1B68DA07C9D57B
:109C200000BE002EC8D1AAE70020AFF3008093E762
:109C3000686700200000000000000000406A00206B
:109C4000F0ED00E0806A00202DE9F84305699DF8F9
:109C50002080DDB10446894628464FF0FF311E467C
:109C6000174602F0DBFC2069C4F8009000236381F2
:109C7000A780A381E68084F80880E38118B11A46A2
:109C8000194602F04BF80120BDE8F88345810160D8
:109C900085818280C38080F80880C5810120BDE86D
:109CA000F88300BF2DE9F0414589ADB2002D52D0B7
:109CB0000446006915460F4618B14FF0FF3102F017
:109CC000ADFC6389A6882168B4F806C09D4288BFB0
:109CD0006589E38988BFADB22B44B3423EDDE2899A
:109CE000E389B61AB6B20CFB03110CFB06F2384638
:109CF0000CF0CDF9E389A288216833449BB29342EA
:109D000024BF9B1A9BB2E3816389E2889B1B9BB2B1
:109D10006381B4F80EC0AB1B1FFA83F806FB027018
:109D200002FB0C1102FB08F20CF0B1F9E389A288E6
:109D300043449BB2934224BF9B1A9BB2E381638945
:109D4000A3EB08039BB26381206920B100231A466C
:109D5000194601F0E3FF2846BDE8F081E3890CFBDA
:109D600005F20CFB031138460CF091F9E389A28847
:109D70002B449BB2934224BF9B1A9BB2E38163891D
:109D80005B1B9BB26381DFE74389994224D270B5A4
:109D90000546006916460C4618B14FF0FF3102F037
:109DA0003DFCE989AB88EA88214489B2994228BF01
:109DB000C91A2B6828BF89B2304602FB01310CF06A
:109DC00066F9286930B100231A46194601F0A6FF4A
:109DD000012070BD012070BD0020704738B5828819
:109DE00043899A42044629D020690D4618B14FF0A4
:109DF000FF3102F013FCE2882368A089294602FBA8
:109E000000300CF044F9A389A28801339BB293423D
:109E100024BF9B1A9BB2A38163899A4212D06389A3
:109E200001339BB26381206930B100231A46194681
:109E300001F074FF012038BD012038BD007A0028F0
:109E4000D2D138BDA3899BB2E381ECE72DE9F04183
:109E50001546002A33D0044600690F4618B14FF06A
:109E6000FF3102F0DBFB227AA388B4F806C04ABBBC
:109E700062899A1A92B2954228BF15462A46A1894C
:109E80002068114499422EDCA3890CFB02F20CFBE2
:109E9000030039460CF0FBF8A389A2882B449BB23F
:109EA000934224BF9B1A9BB2A38163899A4262D0DA
:109EB000638920692B449BB26381002853D12846D3
:109EC000BDE8F0819D422A46D9D90021A181E181D6
:109ED0006181EA1AA18920680CFB02771A461144B5
:109EE00099421D46D0DDA689A1899B1B9EB20CFB21
:109EF00006F20CFB010039460CF0C9F8A389A288D0
:109F000033449BB2934224BF9B1A9BB2A3816389C3
:109F10009A4234D0638933449BB26381E0882368DA
:109F2000B4F80CC0A5EB06081FFA88F800FB08F28D
:109F300006FB007100FB0C300CF0A9F8A389A28885
:109F400043449BB2934224BF9B1A9BB2A381638973
:109F50009A4210D0638998441FFA88F8A4F80A80BE
:109F600020690028ABD000231A46194601F0D6FE1E
:109F70002846BDE8F081A3899BB2E381F0E7A3897D
:109F80009BB2E381CAE700BF036993B110B50446F1
:109F90004FF0FF31184602F041FB20690023638136
:109FA000A381E38118B11A46194601F0B7FE0120DA
:109FB00010BD43818381C38101207047024B187813
:109FC000C0F38000704700BFC06A0020024B1878C1
:109FD000C0F3C000704700BFC06A002030B5322215
:109FE00083B0002115480CF076F815490B46002483
:109FF0004A6833F8080B4988009401F0EBFD114BD7
:10A00000186080B1104C04F18C0554F81C3B984743
:10A01000AC42FAD1002000F087FE002000F086FE5E
:10A02000012003B030BD094B1B6813F0010302D0BF
:10A0300000BE03B030BD184603B030BDC06A00207A
:10A0400004600020F46A00207C920300F0ED00E040
:10A050002DE9F04F8BB001F0D9FC002800F01F81F2
:10A06000BB4CDFF80483DFF80CB381464FF0FF32BE
:10A0700007A9206802F040F9002800F010819DF83F
:10A080001D30013B072B00F20D81DFE813F0E000EB
:10A09000BB00AF00A4009D0031000E000800089B2B
:10A0A000002BE3D009989847E0E79DF82010A94BD2
:10A0B00001F07F0003EB400303EBD11393F8222060
:10A0C0006FF3000283F82220002800F007819D7CB6
:10A0D000042D00F2DF80A04E099B9DF821209DF801
:10A0E0001C00C5EBC50506EB85056D69A847BDE7F6
:10A0F000984D9DF81CA02B78002043F001032B7095
:10A1000000F03AFD9DF8206006F06000602800F045
:10A11000DE80402800F00A8106F01F06012E00F0C4
:10A120002B81C0F0E380022E40F0D1809DF82410F6
:10A1300001F07F07072F00F2CA807B000093CA0955
:10A14000EB1813449F7C002840F031829DF82100D9
:10A15000012800F03182C0F03C81032840F0B78034
:10A16000BDF82230002B00F03E8208A9504600F0D6
:10A1700081FCFF2F00F03C814D46042F00F2A780A8
:10A18000754EC7EBC70306EB8306306900F0F4FC9D
:10A19000F368504608A99847002840F029819DF8A7
:10A1A000203013F0600F01D100F0E6FC002D7FF4A9
:10A1B0005DAF9DF81C00002100F022FF80219DF87A
:10A1C0001C0000F01DFF51E7BBF1000F3FF44EAF44
:10A1D000AFF300804AE7614B002B3FF447AF5D4B84
:10A1E0001878C0F30010AFF300803FE75A4D05F137
:10A1F0008C06AB691C3513B19DF81C009847AE4224
:10A20000F7D133E73222002152489DF81C60524DAD
:10A210000BF061FF524A4FF0FF3353619361D361FA
:10A22000136053609360D360136100F09BFC05F1F1
:10A230008C076B6830461C3503B19847AF42F8D1A4
:10A24000484B002B3FF412AFAFF300800EE73222F1
:10A25000002140489DF81C603F4D0BF03CFF404AF8
:10A260004FF0FF3353619361D36113605360936088
:10A27000D360136100F076FC05F18C076B68304603
:10A280001C3503B19847AF42F8D1324B9DF82020DE
:10A290005A70EBE6344B1B68D90700D500BE0BB0F3
:10A2A000BDE8F08FD8F80030DA077FF5DFAE00BEEA
:10A2B000DCE6501EC0B204F095FE18B14378022BC4
:10A2C00000F0B781D8F80030DB0700D500BED8F821
:10A2D0000030D8077FF56DAF00BE6AE7099B9DF897
:10A2E00021209DF81C0000F05DFCBFE6202800F056
:10A2F00044810028EBD19DF82130092BE7D801A239
:10A3000052F823F0D3A40200B7A40200CFA20200A7
:10A31000F3A40200CFA202009DA4020049A40200FF
:10A32000CFA2020031A4020005A402000F4B002BB3
:10A330003FF43FAF0E4808B100F01EFC504608A99C
:10A34000AFF300800546002D7FF490AE31E700BFEB
:10A35000F46A0020C06A00207C9203000000000024
:10A36000C26A002000000000F0ED00E000000000E4
:10A3700000000000000000009DF824300F2B3FF685
:10A3800018AF2B449B78042B3FF613AFC54DC3EB9E
:10A39000C30305EB8305286900F0EEFBEB6808A911
:10A3A0005046984700287FF461AE9DF8203013F0A6
:10A3B00060017FF4FEAE9DF821300A2B7FF4F9AEE8
:10A3C0000AAA334602F80E1D504608A900F06AFB9F
:10A3D0004CE620330AAA9B78C3F3400322F80E3DD3
:10A3E00008A93346504600F05DFBFF2F7FF4C4AE52
:10A3F0009DF8203013F0600F7FF438AE002000F09D
:10A40000BBFB33E62B789DF8222001925E0702D435
:10A41000002A7FF44EAF019B2A78003318BF012336
:10A4200063F38202504608A92A7000F023FB1DE660
:10A430002B780AAAC3F3800302F80E3D504601238D
:10A4400008A900F02FFB11E6BDF82200030A013B2A
:10A45000C0B20E2B3FF6ADAE01A252F823F000BF02
:10A4600045A502005DA5020035A50200B3A10200CA
:10A47000B3A102000FA50200B3A10200B3A1020024
:10A48000B3A10200B3A10200B3A10200B3A1020074
:10A49000B3A10200B3A1020011A6020008A800F0B7
:10A4A00071FB50469DF8221000F046FC2B7843F0DB
:10A4B00002032B70DAE5BDF82230012B7FF479AE70
:10A4C0002B7850466FF3041308A92B7000F0D2FAD2
:10A4D000CCE52B78D90801F002010AAAC3F3801356
:10A4E0000B4322F80E3D5046022308A900F0DAFA89
:10A4F000BCE5BDF82230012B7FF45BAE2B785046D3
:10A5000043F0100308A92B7000F0B4FAAEE5664BD7
:10A51000002B3FF44EAEAFF30080024600283FF41C
:10A52000D6AE5046137808A900F0BCFA00287FF494
:10A530009DAD3EE6BDF8241004F05AFD0246002809
:10A54000EFD136E604F04AFD1223024608A9504630
:10A5500000F0A8FA00287FF489AD2AE604F042FD55
:10A56000024600283FF4B3AE5046538808A900F0D5
:10A5700099FA00287FF47AAD1BE69DF824300F2B62
:10A580003FF617AE2B449B78042B3FF612AE454D99
:10A59000C3EBC30305EB8305286900F0EDFAEB6814
:10A5A000504608A9984700287FF460AD01E6FF2FC8
:10A5B0003FF4FFAD0025E0E5BDF82250002D7FF40B
:10A5C000D4AD5046009300F02BFD009B93F8222061
:10A5D00065F3410283F8222093F8222065F30002FC
:10A5E00083F82220C1E55046019200F009FD009B4E
:10A5F000019A2B44134493F8222042F0020283F87C
:10A60000222093F8222042F0010283F82220ACE5B8
:10A61000264B002B3FF4CDADAFF30080034602463E
:10A620005B88504608A900F03DFA00287FF41EAD73
:10A63000BFE5C2792B78511161F34513921162F392
:10A6400086132B70438800F10907C3189F420293B9
:10A6500069D2CDF80090CDF814A07A780B2A1BD0DF
:10A660004FF00009042A14D1029BDFF838A0DE1B4A
:10A67000B3B203930026DAF80830039A05983946F6
:10A680009847F3B20AF11C0A049388B90136052EE3
:10A69000F1D1DDF8009015E63B783B44B9465A7895
:10A6A0001F46DFE77C92030000000000000000006E
:10A6B00008280346EDD9039A8242EAD3BA78A9184A
:10A6C0008878FF28E5D19DF810008870B9F1000F57
:10A6D00016D099F802109142DBD199F804007A79EA
:10A6E0009042D6D199F80320012A09D9023A0331C0
:10A6F000D2B268180132314603930BF0ECFC039B95
:10A70000394600224878052814D00878024492B2CD
:10A7100093420144F6D81F44029BBB429DD8DDF80A
:10A720000090DDF814A00C4B002B3FF474AEAFF397
:10A73000008070E68E7806F07F0005EB400000EBAD
:10A74000D6109DF8106086740878024492B29A423E
:10A750000144D7D3DFE700BF0000000030B585B06B
:10A7600000248D1E8DF805108DF80400CDF80A40E8
:10A77000CDF80640ADF80E40032D03D8DFE805F014
:10A7800038152B17254B1868EAB100236A4601A932
:10A7900001F00CFD009B43B1214B4FF080525A60F9
:10A7A00040BFBFF34F8FBFF36F8F05B030BD1D4B60
:10A7B0001978C907F9D5197818486FF3C3011970CA
:10A7C0000068002AE1D1134601A94FF0FF3201F0E1
:10A7D000A5FA05B030BD134B1978C807E5D519782F
:10A7E0000E4841F0080119700068002ACDD1EAE74F
:10A7F0000C490A480B7800686FF300030B700B7864
:10A800006FF341030B700B786FF382030B700B78BF
:10A810006FF3C3030B70002AB7D1D4E7F46A0020AA
:10A8200000ED00E0C06A002030B50B4685B04968F5
:10A830008DF804001868114D02AC03C400230621F2
:10A840002868ADF806308DF8051082B16A4601A976
:10A8500001F0ACFC009B43B1094B4FF080525A60B1
:10A8600040BFBFF34F8FBFF36F8F05B030BD1346AE
:10A8700001A94FF0FF3201F051FAF6E7F46A002027
:10A8800000ED00E070B584B0164E9DF820400392B4
:10A8900007250022CDF806208DF80400ADF80A2027
:10A8A0008DF808108DF8093030688DF805508CB19E
:10A8B000134601A96A4601F079FC009B43B10A4B9B
:10A8C0004FF080525A6040BFBFF34F8FBFF36F8F7E
:10A8D00004B070BD23464FF0FF3201A901F01EFA0B
:10A8E000F6E700BFF46A002000ED00E02DE9F04734
:10A8F000DDE90889002A35D016464A78052A0C4633
:10A900002AD1CD7805F00305AB4225D107464FF09B
:10A91000000A14E0A378DA0914BF89F8003088F837
:10A92000003023780AF1010AB2451C441AD063783A
:10A93000052B11D1E37803F00303AB420CD1214680
:10A94000384600F00BFA0028E4D1094B1B68DB07FE
:10A950000BD40020BDE8F087054B1B68DA07F8D55B
:10A9600000BEF6E70120BDE8F08700BEBDE8F08735
:10A97000F0ED00E030B5114D85B0002308240290C1
:10A980000193039128688DF8054082B16A4601A9B8
:10A9900001F00CFC009B43B1094B4FF080525A6010
:10A9A00040BFBFF34F8FBFF36F8F05B030BD13466D
:10A9B00001A94FF0FF3201F0B1F9F6E7F46A002087
:10A9C00000ED00E000F0CAB970B50D4C01F07F0653
:10A9D00004EB460404EBD11494F8225045F0010531
:10A9E00084F8225000F0F0F948B92034A378054AE1
:10A9F00060F30003A3701368DB0700D500BE70BDD1
:10AA0000C06A0020F0ED00E0054B01F07F0203EB8F
:10AA1000420303EBD11191F8220000F001007047CE
:10AA2000C06A002010B50C4600F0EAFA094904F0AB
:10AA30007F0301EB430101EBD41191F8223043F085
:10AA4000020381F8223091F8223043F0010381F8AB
:10AA5000223010BDC06A0020054B01F07F0203EBDD
:10AA6000420303EBD11191F82200C0F3400070477C
:10AA7000C06A00200A4630B4094C4968054610688F
:10AA8000234603C30023C4E9023392F900209A420B
:10AA90002846ACBF802119461A4630BC00F094B954
:10AAA000B86B0020F0B50E462B4C4968074630685D
:10AAB000A260254603C50021E181F588AB4228BF8D
:10AAC0002B4683B0A381ADB13BB3002A3DD094F9AE
:10AAD0000000402B28BF402300282CDB1F4A3846AB
:10AAE00000F072F998B91E4B1B68DB0712D500BE47
:10AAF00003B0F0BD96F90030002BACBF80210021DF
:10AB000038462B462A4600F05FF90028EBD001209A
:10AB100003B0F0BD002003B0F0BD94F90020002A7E
:10AB2000ACBF194680211A46384600F04DF900287E
:10AB3000D9D00120ECE71146084801931A460BF0E2
:10AB4000A6FA064A019B8021EEE7054B1B68D90750
:10AB5000E0D500BE1046CBE7B86B0020CC6B0020E0
:10AB6000F0ED00E0034B0022C3E90022C3E902221A
:10AB70001A617047B86B0020014B1861704700BF25
:10AB8000B86B00200346064A5968006810B41346A3
:10AB9000002403C3C2E902445DF8044B704700BFC0
:10ABA000B86B002070B53F4C2278C909B1EBD21FB9
:10ABB00082B01AD033B13C4B1B68DA0749D400206D
:10ABC00002B070BD394B6BB12146AFF3008001205C
:10ABD00002B070BD0146304600F012FA30468021C6
:10ABE00000F00EFA012002B070BD94F90020002A96
:10ABF0000646A06808DB0028E1D01A462C490193DC
:10AC00000BF045FAA068019BE589E2881D44ADB2CE
:10AC10001844AA42A060E58101D03F2B1BD82369CC
:10AC200023B12049304698470028D3D094F900201A
:10AC300000239A42ACBF8021194630461A4600F0E4
:10AC4000C3F80028CED1184B1B68DB07B7D500BE70
:10AC5000B6E700BEB3E7A28994F90010531B9BB27C
:10AC6000402B28BF402300290ADB95424FF000010A
:10AC700012D00F4A304600F0A7F80028E3D0B1E721
:10AC800095420BD001461A46094801930BF0FFF993
:10AC90008021074A019BEDE70A46EBE7802100226D
:10ACA000E8E700BFB86B0020F0ED00E00000000016
:10ACB000CC6B002042DF704743DF704744DF7047B2
:10ACC00012DF7047144A92F8C0307BB1134B5B68B7
:10ACD000C3F30803D3B9EFF31083A3B9104B5B6838
:10ACE0001B0610D592F8C030002BFBD192F8C03073
:10ACF0000133DBB2012182F8C0300160BFF36F8FF6
:10AD0000BFF34F8F704792F8C030EFE70146012242
:10AD10000448FFF72FBE00BF0C6C002000ED00E0E0
:10AD200000E100E0C5AC0200704700BF014B80228B
:10AD30005A60704700E100E0074BD3F80014D3F8E5
:10AD4000002400200A434FF48001C3F80024C3F814
:10AD50005801C3F8041370470070024030B48A7879
:10AD60000D79174802F07F03D209540003EB430129
:10AD70001444C90001EB8401014401200D7200FA62
:10AD800003F18AB10F4A023300FA03F3C2F8043325
:10AD9000D2F810350B43C2F81035BFF36F8FBFF3F5
:10ADA0004F8F012030BC7047064A0C3300FA03F382
:10ADB000C2F80433D2F814350B43C2F81435ECE76B
:10ADC0000C6C002000700240F0B501F07F04C8094F
:10ADD00066000F464FEA400C31198444804DC9008B
:10ADE00001EB8C0105EB010C6A50002283B0ACF83A
:10ADF0000430ACF8062004B9BBB100284FD1331998
:10AE0000DB00EA18527A002A40F09280002C00F011
:10AE10008B8004F59474734B43F82400BFF36F8F59
:10AE2000BFF34F8F012003B0F0BD6E4BD3F88034D9
:10AE3000C3F3C0139842E0D095F8C0307BB16A4BA1
:10AE40005B68C3F30803002B40F0BE80EFF3108370
:10AE50001BB9664B5B6818065DD495F8C03095F851
:10AE6000C030634A0133DBB2012185F8C030116084
:10AE7000BFF36F8FBFF34F8F95F8C0302BB195F8AC
:10AE8000C030013BDBB285F8C03000233946009367
:10AE90001A461846FFF7F6FC012003B0F0BD264421
:10AEA00005EBC60604EB8402708A338A317D1B1AD7
:10AEB00092009BB202F1804202F51C328B4228BF05
:10AEC0000B46F168C2F80016C2F8043695F8C000C7
:10AED000484A0B4424B2F36002EB840188B1424B30
:10AEE0005B68C3F30803002B74D1EFF31083002BCE
:10AEF0005DD13E4B5B681B0659D595F8C030002BE1
:10AF0000FBD195F8C0300133DBB2012185F8C030A8
:10AF100042F8241082E795F8C030002B9FD095F8B6
:10AF2000C030002BF7D19AE72E4B0122DA6475E787
:10AF30002C4A55F803C0304804F5947104EB84039F
:10AF400052F8217002EB8303FFB2C3F800C7C3F8C5
:10AF5000047795F8C03022B200EB82016BB1224B2E
:10AF60005B68C3F3080353BBEFF310831BB91F4B9C
:10AF70005B6819061ED495F8C03095F8C0300133CF
:10AF8000DBB2012185F8C03040F82210BFF36F8F8B
:10AF9000BFF34F8F3444E40029192A59CB883B442E
:10AFA0009BB2174401202F51CB8003B0F0BD95F820
:10AFB000C030A6E795F8C030002BFBD1DDE70122B9
:10AFC0000E48FFF7D7FCE5E7012209490B48FFF7D8
:10AFD000D1FC51E701220948FFF7CCFC5CE700BF38
:10AFE0000C6C00200070024000ED00E000E100E089
:10AFF000507002400470024028700240C5AC02004C
:10B000004A06064B0BBF012241F480715A65C3F812
:10B010001815BFF36F8FBFF34F8F7047007002405A
:10B020004B060AD0054B41F48072C3F81815C3F8DB
:10B030000C25BFF36F8FBFF34F8F70470070024036
:10B040002DE9F04FB04BB14ED3F80043002387B049
:10B050001D469C46012000FA03F19A190C424FEA62
:10B06000820208D0176837B10D43C2F800C0BFF3A1
:10B070006F8FBFF34F8F0133192BECD1EE0700F127
:10B080009182AC0200F1888268020CD59E4ED6F8FF
:10B09000004404F44073E105C6F8003400F1AF82C7
:10B0A000A20500F1B7829A4B2B4053B1994B93F80C
:10B0B000C020002A40F0BD81974B1B68DB0700F1E0
:10B0C000B2822F022BD5904BD3F88024D2B28DF8C8
:10B0D0001020D3F88414C9B28DF81110D3F8880465
:10B0E0008DF81200D3F88C048DF81300D3F8900477
:10B0F0008DF81400D3F894048DF81500D3F8980453
:10B100008DF81600D3F89C348DF81730560601D10F
:10B11000052904D0012204A90020FFF785FBEC04D7
:10B1200015D5794A7B4CD2F80837217ADBB200205A
:10B130009942607240F08B81E388A188994240F285
:10B1400086810123D364BFF36F8FBFF34F8FA804B1
:10B1500017D56D4A6F4CD2F81C3794F82000DBB23B
:10B160000021984284F8211040F06781E38BA08B86
:10B17000984240F26281C2F8A414BFF36F8FBFF30C
:10B180004F8F690417D5604A624CD2F8303794F873
:10B190003800DBB20021984284F8391040F08C81ED
:10B1A000E38EA08E984240F28781C2F8A814BFF3C4
:10B1B0006F8FBFF34F8F2A0419D5534A554CD2F8DD
:10B1C000443794F85000DBB20021984284F85110C3
:10B1D00040F06481B4F84E30B4F84C00984240F22C
:10B1E0005D81C2F8AC14BFF36F8FBFF34F8FEB03D9
:10B1F00019D5454A474CD2F8583794F86800DBB265
:10B200000021984284F8691040F06F81B4F86630EC
:10B21000B4F86400984240F26881C2F8B014BFF3F9
:10B220006F8FBFF34F8FAF0319D5374A394CD2F820
:10B230006C3794F88000DBB20021984284F88110CA
:10B2400040F04581B4F87E30B4F87C00984240F27A
:10B250003E81C2F8B414BFF36F8FBFF34F8F6E03FC
:10B2600019D5294A2B4CD2F8803794F89800DBB2D4
:10B270000021984284F8991040F00281B4F8963089
:10B28000B4F89400984240F2FB80C2F8B814BFF3BF
:10B290006F8FBFF34F8F2C0319D51B4A1D4CD2F86B
:10B2A000943794F8B000DBB20021984284F8B110D2
:10B2B00040F0D880B4F8AE30B4F8AC00984240F218
:10B2C000D180C2F8BC14BFF36F8FBFF34F8F134B05
:10B2D0002B40002B00F09D800B4BD3F86C94C3F8EF
:10B2E0006C94BFF36F8FBFF34F8F15F4806540F000
:10B2F0009380CDE90255074FDFF80CA0DFF820B0AE
:10B300003C463E46002515E000700240409C00107F
:10B31000FCFB1F000C6C0020F0ED00E000040001BD
:10B32000019C0010002D00F09181B8F1070F4CD066
:10B33000013518360123AB4013EA090F5FFA85F88F
:10B34000F0D005EB850205EB450304EBC3030AEBE4
:10B350008202D2F80416588A014489B25982588A66
:10B36000318A814240F2CF805B8A307DC91A89B22E
:10B37000F368C2F80036814228BF01460B44C2F888
:10B380000416F36094F8C03005EB0B0189006BB133
:10B39000B14B5B68C3F30803002B40F04681EFF329
:10B3A0001083002B00F0218194F8C03094F8C03055
:10B3B0000133DBB2012284F8C0300A60BFF36F8F23
:10B3C000BFF34F8FB8F1070FB2D1DFF894A2DFF8C7
:10B3D0009CB2A14B002507E0002D00F03281EAB2BB
:10B3E000072A16D00135183705F1100101228A40CD
:10B3F00012EA090FF0D06E00721904EBC202B8888D
:10B40000D188884200F2898001215172EAB2072A6C
:10B41000E8D107B0BDE8F08FD3F88024D3F88034AA
:10B4200083F08003C3F3C0130293C2F3C0130393EA
:10B4300061E7002283F8C02043E6E38BA383012168
:10B440000023E28B00911846FFF71CFA99E6E38887
:10B45000A38001210023E288009118461946FFF7D6
:10B4600011FA74E6B4F8AE30A4F8AC300121002330
:10B47000B4F8AE20009118460721FFF703FA26E73B
:10B48000B4F89630A4F8943001210023B4F8962043
:10B49000009118460621FFF7F5F9FCE6B4F84E30A6
:10B4A000A4F84C3001210023B4F84E200091184636
:10B4B0000321FFF7E7F99AE6E38EA3860121002333
:10B4C000E28E009118460221FFF7DCF973E6B4F82A
:10B4D0007E30A4F87C3001210023B4F87E20009156
:10B4E00018460521FFF7CEF9B9E6B4F86630A4F89E
:10B4F000643001210023B4F866200091184604212D
:10B50000FFF7C0F98FE65A8A0121002300911846FF
:10B5100048F08001FFF7B6F907E705F5947105EBF0
:10B5200085025AF8210039680AEB82025FFA80F836
:10B53000C2F80017C2F8048794F8C02005EB0B018D
:10B54000890082B15A68C2F30802002A72D1EFF36F
:10B550001082002A64D1414A5268120660D594F8DC
:10B56000C020002AFBD194F8C0200132D2B20120C1
:10B5700084F8C0200860BFF36F8FBFF34F8F3A6825
:10B580002E44424404EBC6063A60F28890441FFA07
:10B5900088F8A6F8068022E7012203210020FFF7A1
:10B5A000DDF871E52E4B2F4E00245C6021469C6235
:10B5B00030469C60C422DC62DC601C631C615C63FE
:10B5C0005C619C639C61DC63DC611C641C625C6488
:10B5D0005C629C640AF07FFD4023012220461146F4
:10B5E00033753372FFF7BAF84BE51C4B5B681806EE
:10B5F0007FF5DAAE94F8C030002BFBD1D6E60122FD
:10B6000004210020FFF7AAF80123A205C6F82C3573
:10B610007FF549AD012205210020FFF79FF842E5A3
:10B6200094F8C0209FE700BE4BE501220E48FFF7CB
:10B63000A1F97AE601220C480393FFF79BF9039BDB
:10B640009DE7029A002A3FF4CDAED4E6039B002B7F
:10B650003FF46EAE75E600BF00ED00E000E100E0F3
:10B66000007002400C6C0020C5AC02000A9C001067
:10B6700030B5012883B000F0968052D302283CD127
:10B68000B14BD3F80435002B40F0C680AE4AD2F857
:10B6900000341C05FBD54FF40063C2F80034BFF33F
:10B6A0006F8FBFF34F8FA94AA94B12681B68082AF6
:10B6B00000F0C680A449A74AA7488023C1F81C35DA
:10B6C000C1F80403C2F884315360A44D43F204046A
:10B6D0004FF080432268AA4211D0D3F80C14D3F85B
:10B6E0000C24D003F6D5CA07F4D5974B0122C3F832
:10B6F0000425BFF36F8FBFF34F8F03B030BD02AA95
:10B70000002102F8041D1046FFF7DAFA9DF8041034
:10B710000029E2D01046FFF7D1FA019A002AD9D0C9
:10B72000E3E7894BD3F80025002AE6D14FF4006205
:10B73000C3F80024BFF36F8FBFF34F8F834B1B6899
:10B74000082B00F0AC80804B0122C3F80025BFF32A
:10B750006F8FBFF34F8F43F2040203F18D5303F554
:10B760007723126803F2DB539A4200F0BF804FF058
:10B770008043D3F80C24D3F80C34D90301D5D20775
:10B78000BBD443F20402754B12689A4200F00C815C
:10B79000734B00221A601B6801934FF08043012213
:10B7A00001991A60A9E7684BD3F80025002AA4D0B4
:10B7B0000022C3F80425BFF36F8FBFF34F8F654995
:10B7C0008020C1F88400BFF34F8FBFF36F8FD3F891
:10B7D0000013C3F80813C3F80025BFF36F8FBFF33E
:10B7E0004F8F43F2040103F18D5303F5772309686A
:10B7F00003F2DB53994200F08D805A4B01221A600C
:10B80000594B5A68C2F30802003218BF01220221C4
:10B810000020FEF7A3FF70E743F204024F4B1268CB
:10B820009A4200F0AD804FF08043D3F80C24D3F857
:10B830000C34DB037FF52AAFD5077FF527AF5CE734
:10B84000032B09D8494A1168002978D1484C49F29C
:10B8500075301060216010605A1E022A10D8434AC9
:10B860001168002963D1434D3848394B00681B6883
:10B8700049F2753414602960146008287FF41AAF07
:10B88000032B3FF617AF3C493C4B40F2E37040229C
:10B8900008601A60BFF36F8FBFF34F8F0AE72C4B1E
:10B8A0001B685A1E022A12D8304B1A68002A40F030
:10B8B0008D80304949F2753203201A6008601A60A1
:10B8C000224A234B12681B68082A7FF43CAF032BE3
:10B8D0003FF639AF254B1A68002A73D1244949F243
:10B8E0007532C0201A6008601A602CE702AB002293
:10B8F00003F8042D1846FFF7E3F99DF80420002A09
:10B900003FF435AF1846FFF7D9F9019B002B7FF4C0
:10B91000F4AE36E702A800F8042DFFF7D1F99DF840
:10B920000430002B3FF469AFFFF7C6F968E7074919
:10B93000074B104A08681B68002111609DE70C4AFC
:10B940000021116088E700BF007002403001001044
:10B950003401001000E100E005148001DBE5B15185
:10B96000000100400400004000ED00E000EC064053
:10B9700014EC064014ED06400078024004780240C2
:10B9800002AB002203F8042D1846FFF799F99DF841
:10B990000420002A3FF447AF1846FFF78FF9019BB8
:10B9A000002B7FF4AAAE71E602A8002300F8043D44
:10B9B000FFF786F99DF80430002B3FF4E9AEFFF75E
:10B9C00079F99AE6034BC0221A60BCE6024B0322C7
:10B9D0001A6075E714EC064014ED064038B5094DC1
:10B9E0002C780CB1204638BDFEF7F8FA28B9064B82
:10B9F0001B68DB07F6D500BEF4E701232B70204659
:10BA000038BD00BFD06C0020F0ED00E0014B18788D
:10BA1000704700BFD06C002000B51849184883B0AB
:10BA200003F08CFA48F2290242F29A31144803F0EA
:10BA3000CFFA134803F0D0FA124A40214FF0804366
:10BA400002A882F827130024D3F8385400F8084DD0
:10BA500002F03EFC02A80C4B40F8043D02F088FCCA
:10BA600002F098FCEB0704D4FFF7B8FFFEF7F0FAFA
:10BA7000FCE72046FFF7FCFDF6E700BF6467002007
:10BA8000C076002000E100E071B602000020FFF760
:10BA9000D7BA00BF00B5002383B00322CDE900234D
:10BAA00003490448C82201F0FDF803B05DF804FB27
:10BAB0000893030019BA020008B5052000F050F8F9
:10BAC000BDE8084003F0A8B830B54FF0805387B008
:10BAD0000C465A6E1B491B6E01A80BF057F99DF8D6
